{
  "_format": "hh-sol-artifact-1",
  "contractName": "ApproveContract",
  "sourceName": "contracts/hts-precompile/examples/erc-20/approveContract.sol",
  "abi": [
    {
      "inputs": [
        {
          "internalType": "address",
          "name": "token",
          "type": "address"
        },
        {
          "internalType": "address",
          "name": "owner",
          "type": "address"
        },
        {
          "internalType": "address",
          "name": "spender",
          "type": "address"
        }
      ],
      "name": "allowance",
      "outputs": [
        {
          "internalType": "uint256",
          "name": "",
          "type": "uint256"
        }
      ],
      "stateMutability": "view",
      "type": "function"
    },
    {
      "inputs": [
        {
          "internalType": "address",
          "name": "token",
          "type": "address"
        },
        {
          "internalType": "address",
          "name": "spender",
          "type": "address"
        },
        {
          "internalType": "uint256",
          "name": "amount",
          "type": "uint256"
        }
      ],
      "name": "approve",
      "outputs": [
        {
          "internalType": "bool",
          "name": "",
          "type": "bool"
        }
      ],
      "stateMutability": "nonpayable",
      "type": "function"
    }
  ],
  "bytecode": "0x608060405234801561001057600080fd5b506102aa806100206000396000f3fe608060405234801561001057600080fd5b50600436106100365760003560e01c8063927da1051461003b578063e1f21c6714610061575b600080fd5b61004e6100493660046101b3565b610084565b6040519081526020015b60405180910390f35b61007461006f3660046101f6565b610111565b6040519015158152602001610058565b604051636eb1769f60e11b81526001600160a01b03838116600483015282811660248301526000919085169063dd62ed3e9060440160206040518083038186803b1580156100d157600080fd5b505afa1580156100e5573d6000803e3d6000fd5b505050506040513d601f19601f820116820180604052508101906101099190610232565b949350505050565b60405163095ea7b360e01b81526001600160a01b038381166004830152602482018390526000919085169063095ea7b390604401602060405180830381600087803b15801561015f57600080fd5b505af1158015610173573d6000803e3d6000fd5b505050506040513d601f19601f82011682018060405250810190610109919061024b565b80356001600160a01b03811681146101ae57600080fd5b919050565b6000806000606084860312156101c857600080fd5b6101d184610197565b92506101df60208501610197565b91506101ed60408501610197565b90509250925092565b60008060006060848603121561020b57600080fd5b61021484610197565b925061022260208501610197565b9150604084013590509250925092565b60006020828403121561024457600080fd5b5051919050565b60006020828403121561025d57600080fd5b8151801515811461026d57600080fd5b939250505056fea26469706673582212208ffa1cb7e3f436f61965e864c1807ec3f66f9065db3211a0bdb3b5bf30e4343a64736f6c63430008090033",
  "linkReferences": {},
  "deployedLinkReferences": {}
}